{
  "_format": "hh-sol-artifact-1",
  "contractName": "RarityCaretaker",
  "sourceName": "contracts/Caretaker.sol",
  "abi": [
    {
      "anonymous": false,
      "inputs": [
        {
          "indexed": false,
          "internalType": "uint256",
          "name": "tokenid",
          "type": "uint256"
        },
        {
          "indexed": false,
          "internalType": "uint256",
          "name": "reward",
          "type": "uint256"
        }
      ],
      "name": "Cellar",
      "type": "event"
    },
    {
      "anonymous": false,
      "inputs": [
        {
          "indexed": true,
          "internalType": "address",
          "name": "previousOwner",
          "type": "address"
        },
        {
          "indexed": true,
          "internalType": "address",
          "name": "newOwner",
          "type": "address"
        }
      ],
      "name": "OwnershipTransferred",
      "type": "event"
    },
    {
      "anonymous": false,
      "inputs": [
        {
          "indexed": false,
          "internalType": "address",
          "name": "operator",
          "type": "address"
        },
        {
          "indexed": false,
          "internalType": "address",
          "name": "from",
          "type": "address"
        },
        {
          "indexed": false,
          "internalType": "address",
          "name": "origin",
          "type": "address"
        },
        {
          "indexed": false,
          "internalType": "uint256",
          "name": "tokenId",
          "type": "uint256"
        },
        {
          "indexed": false,
          "internalType": "bytes",
          "name": "data",
          "type": "bytes"
        },
        {
          "indexed": false,
          "internalType": "uint256",
          "name": "gas",
          "type": "uint256"
        }
      ],
      "name": "Received",
      "type": "event"
    },
    {
      "inputs": [
        {
          "internalType": "uint256[]",
          "name": "_ids",
          "type": "uint256[]"
        }
      ],
      "name": "adventure_time",
      "outputs": [],
      "stateMutability": "nonpayable",
      "type": "function"
    },
    {
      "inputs": [],
      "name": "attr",
      "outputs": [
        {
          "internalType": "contract rarity_attributes",
          "name": "",
          "type": "address"
        }
      ],
      "stateMutability": "view",
      "type": "function"
    },
    {
      "inputs": [],
      "name": "cellar",
      "outputs": [
        {
          "internalType": "contract rarity_crafting_materials",
          "name": "",
          "type": "address"
        }
      ],
      "stateMutability": "view",
      "type": "function"
    },
    {
      "inputs": [
        {
          "internalType": "uint256",
          "name": "id",
          "type": "uint256"
        }
      ],
      "name": "dd",
      "outputs": [
        {
          "internalType": "uint256",
          "name": "index",
          "type": "uint256"
        }
      ],
      "stateMutability": "pure",
      "type": "function"
    },
    {
      "inputs": [
        {
          "internalType": "uint256[]",
          "name": "_ids",
          "type": "uint256[]"
        }
      ],
      "name": "doAll",
      "outputs": [],
      "stateMutability": "nonpayable",
      "type": "function"
    },
    {
      "inputs": [],
      "name": "master",
      "outputs": [
        {
          "internalType": "contract rarity",
          "name": "",
          "type": "address"
        }
      ],
      "stateMutability": "view",
      "type": "function"
    },
    {
      "inputs": [
        {
          "internalType": "address",
          "name": "operator",
          "type": "address"
        },
        {
          "internalType": "address",
          "name": "from",
          "type": "address"
        },
        {
          "internalType": "uint256",
          "name": "tokenId",
          "type": "uint256"
        },
        {
          "internalType": "bytes",
          "name": "data",
          "type": "bytes"
        }
      ],
      "name": "onERC721Received",
      "outputs": [
        {
          "internalType": "bytes4",
          "name": "",
          "type": "bytes4"
        }
      ],
      "stateMutability": "nonpayable",
      "type": "function"
    },
    {
      "inputs": [],
      "name": "owner",
      "outputs": [
        {
          "internalType": "address",
          "name": "",
          "type": "address"
        }
      ],
      "stateMutability": "view",
      "type": "function"
    },
    {
      "inputs": [],
      "name": "renounceOwnership",
      "outputs": [],
      "stateMutability": "nonpayable",
      "type": "function"
    },
    {
      "inputs": [
        {
          "internalType": "uint256[]",
          "name": "_ids",
          "type": "uint256[]"
        }
      ],
      "name": "set_default_attributes",
      "outputs": [],
      "stateMutability": "nonpayable",
      "type": "function"
    },
    {
      "inputs": [
        {
          "internalType": "uint256[]",
          "name": "_classes",
          "type": "uint256[]"
        }
      ],
      "name": "summon_n",
      "outputs": [],
      "stateMutability": "nonpayable",
      "type": "function"
    },
    {
      "inputs": [
        {
          "internalType": "uint256",
          "name": "index",
          "type": "uint256"
        }
      ],
      "name": "test_defaults",
      "outputs": [
        {
          "internalType": "uint256",
          "name": "",
          "type": "uint256"
        }
      ],
      "stateMutability": "view",
      "type": "function"
    },
    {
      "inputs": [
        {
          "internalType": "address",
          "name": "newOwner",
          "type": "address"
        }
      ],
      "name": "transferOwnership",
      "outputs": [],
      "stateMutability": "nonpayable",
      "type": "function"
    }
  ],
  "bytecode": "0x608060405273ce761d788df608bd21bdd59d6f4b54b2e27f25bb600160006101000a81548173ffffffffffffffffffffffffffffffffffffffff021916908373ffffffffffffffffffffffffffffffffffffffff16021790555073b5f5af1087a8da62a23b08c00c6ec9af21f397a1600260006101000a81548173ffffffffffffffffffffffffffffffffffffffff021916908373ffffffffffffffffffffffffffffffffffffffff160217905550732069b76afe6b734fb65d1d099e7ec64ee9cc76b2600360006101000a81548173ffffffffffffffffffffffffffffffffffffffff021916908373ffffffffffffffffffffffffffffffffffffffff1602179055506e0147629f002966c4f2adc1cb4f0aca600460006101000a81548173ffffffffffffffffffffffffffffffffffffffff021916908373ffffffffffffffffffffffffffffffffffffffff160217905550732a0f1cb17680161cf255348ddfdee94ea8ca196a600560006101000a81548173ffffffffffffffffffffffffffffffffffffffff021916908373ffffffffffffffffffffffffffffffffffffffff1602179055507f150b7a023d4804d13e8c85fb27262cb750cf6ba9f9dd3bb30d90f482ceeb4b1f600560146101000a81548163ffffffff021916908360e01c02179055506040518061010001604052806040518060c00160405280601060ff168152602001600c60ff168152602001600e60ff168152602001600c60ff168152602001600c60ff168152602001600c60ff1681525081526020016040518060c00160405280600c60ff168152602001600c60ff168152602001600e60ff168152602001600c60ff168152602001600c60ff168152602001601060ff1681525081526020016040518060c00160405280600c60ff168152602001600c60ff168152602001600e60ff168152602001601060ff168152602001600c60ff168152602001600c60ff1681525081526020016040518060c00160405280600c60ff168152602001600c60ff168152602001600f60ff168152602001600c60ff168152602001600f60ff168152602001600c60ff1681525081526020016040518060c00160405280600e60ff168152602001600c60ff168152602001600f60ff168152602001600e60ff168152602001600c60ff168152602001600c60ff1681525081526020016040518060c00160405280600c60ff168152602001601060ff168152602001600e60ff168152602001600c60ff168152602001600c60ff168152602001600c60ff1681525081526020016040518060c00160405280600e60ff168152602001600f60ff168152602001600e60ff168152602001600c60ff168152602001600c60ff168152602001600c60ff1681525081526020016040518060c00160405280600c60ff168152602001600c60ff168152602001600c60ff168152602001600e60ff168152602001601060ff168152602001600c60ff1681525081525060069060086200045292919062000553565b503480156200046057600080fd5b5062000481620004756200048760201b60201c565b6200048f60201b60201c565b6200069d565b600033905090565b60008060009054906101000a900473ffffffffffffffffffffffffffffffffffffffff169050816000806101000a81548173ffffffffffffffffffffffffffffffffffffffff021916908373ffffffffffffffffffffffffffffffffffffffff1602179055508173ffffffffffffffffffffffffffffffffffffffff168173ffffffffffffffffffffffffffffffffffffffff167f8be0079c531659141344cd1fd0a4f28419497f9722a3daafe3b4186f6b6457e060405160405180910390a35050565b826008810192821562000595579160200282015b82811115620005945782518290600662000583929190620005a8565b509160200191906001019062000567565b5b509050620005a491906200064f565b5090565b8260066007016008900481019282156200063c5791602002820160005b838211156200060857835183826101000a81548163ffffffff021916908360ff1602179055509260200192600401602081600301049283019260010302620005c5565b80156200063a5782816101000a81549063ffffffff021916905560040160208160030104928301926001030262000608565b505b5090506200064b919062000677565b5090565b5b8082111562000673576000818162000669919062000696565b5060010162000650565b5090565b5b808211156200069257600081600090555060010162000678565b5090565b5060009055565b61238480620006ad6000396000f3fe608060405234801561001057600080fd5b50600436106100cf5760003560e01c80638da5cb5b1161008c578063dd8adffe11610066578063dd8adffe146101ec578063e385323a14610208578063ee97f7f314610238578063f2fde38b14610256576100cf565b80638da5cb5b146101825780639150f451146101a0578063bdc8daa0146101bc576100cf565b8063150b7a02146100d4578063201f35c6146101045780632f03e6881461012257806351341fe214610140578063715018a61461015c578063855b380414610166575b600080fd5b6100ee60048036038101906100e99190611bdc565b610272565b6040516100fb9190611f08565b60405180910390f35b61010c610363565b6040516101199190611f59565b60405180910390f35b61012a610389565b6040516101379190611f3e565b60405180910390f35b61015a60048036038101906101559190611c64565b6103af565b005b610164610481565b005b610180600480360381019061017b9190611c64565b610509565b005b61018a61113c565b6040516101979190611e23565b60405180910390f35b6101ba60048036038101906101b59190611c64565b611165565b005b6101d660048036038101906101d19190611cde565b6114a6565b6040516101e39190611fb4565b60405180910390f35b61020660048036038101906102019190611c64565b611561565b005b610222600480360381019061021d9190611cde565b611633565b60405161022f9190611fb4565b60405180910390f35b610240611883565b60405161024d9190611f23565b60405180910390f35b610270600480360381019061026b9190611b82565b6118a9565b005b60007f0b57a07ac33e982e8cbddf5ad8c3510d539c5ddb38d46a66f782dd9faf88e0a68686328787875a6040516102af9796959493929190611e67565b60405180910390a1600160009054906101000a900473ffffffffffffffffffffffffffffffffffffffff1673ffffffffffffffffffffffffffffffffffffffff166342842e0e3032876040518463ffffffff1660e01b815260040161031693929190611ed1565b600060405180830381600087803b15801561033057600080fd5b505af1158015610344573d6000803e3d6000fd5b50505050600560149054906101000a900460e01b905095945050505050565b600560009054906101000a900473ffffffffffffffffffffffffffffffffffffffff1681565b600260009054906101000a900473ffffffffffffffffffffffffffffffffffffffff1681565b600082829050905060005b8181101561047b57600160009054906101000a900473ffffffffffffffffffffffffffffffffffffffff1673ffffffffffffffffffffffffffffffffffffffff1663035d9f2a85858481811061041357610412612238565b5b905060200201356040518263ffffffff1660e01b81526004016104369190611fb4565b600060405180830381600087803b15801561045057600080fd5b505af1158015610464573d6000803e3d6000fd5b505050508080610473906121c0565b9150506103ba565b50505050565b6104896119a1565b73ffffffffffffffffffffffffffffffffffffffff166104a761113c565b73ffffffffffffffffffffffffffffffffffffffff16146104fd576040517f08c379a00000000000000000000000000000000000000000000000000000000081526004016104f490611f94565b60405180910390fd5b61050760006119a9565b565b600082829050905060005b81811015611136573073ffffffffffffffffffffffffffffffffffffffff16600160009054906101000a900473ffffffffffffffffffffffffffffffffffffffff1673ffffffffffffffffffffffffffffffffffffffff1663081812fc86868581811061058457610583612238565b5b905060200201356040518263ffffffff1660e01b81526004016105a79190611fb4565b60206040518083038186803b1580156105bf57600080fd5b505afa1580156105d3573d6000803e3d6000fd5b505050506040513d601f19601f820116820180604052508101906105f79190611baf565b73ffffffffffffffffffffffffffffffffffffffff1614806107855750600160009054906101000a900473ffffffffffffffffffffffffffffffffffffffff1673ffffffffffffffffffffffffffffffffffffffff1663e985e9c5600160009054906101000a900473ffffffffffffffffffffffffffffffffffffffff1673ffffffffffffffffffffffffffffffffffffffff16636352211e8787868181106106a3576106a2612238565b5b905060200201356040518263ffffffff1660e01b81526004016106c69190611fb4565b60206040518083038186803b1580156106de57600080fd5b505afa1580156106f2573d6000803e3d6000fd5b505050506040513d601f19601f820116820180604052508101906107169190611baf565b306040518363ffffffff1660e01b8152600401610734929190611e3e565b60206040518083038186803b15801561074c57600080fd5b505afa158015610760573d6000803e3d6000fd5b505050506040513d601f19601f820116820180604052508101906107849190611cb1565b5b1561112357600160009054906101000a900473ffffffffffffffffffffffffffffffffffffffff1673ffffffffffffffffffffffffffffffffffffffff1663eed250288585848181106107db576107da612238565b5b905060200201356040518263ffffffff1660e01b81526004016107fe9190611fb4565b60206040518083038186803b15801561081657600080fd5b505afa15801561082a573d6000803e3d6000fd5b505050506040513d601f19601f8201168201806040525081019061084e9190611d0b565b4211156108fc57600160009054906101000a900473ffffffffffffffffffffffffffffffffffffffff1673ffffffffffffffffffffffffffffffffffffffff1663b00b52f18585848181106108a6576108a5612238565b5b905060200201356040518263ffffffff1660e01b81526004016108c99190611fb4565b600060405180830381600087803b1580156108e357600080fd5b505af11580156108f7573d6000803e3d6000fd5b505050505b600160009054906101000a900473ffffffffffffffffffffffffffffffffffffffff1673ffffffffffffffffffffffffffffffffffffffff166394b69ffa85858481811061094d5761094c612238565b5b905060200201356040518263ffffffff1660e01b81526004016109709190611fb4565b60206040518083038186803b15801561098857600080fd5b505afa15801561099c573d6000803e3d6000fd5b505050506040513d601f19601f820116820180604052508101906109c09190611d0b565b600160009054906101000a900473ffffffffffffffffffffffffffffffffffffffff1673ffffffffffffffffffffffffffffffffffffffff1663aca10be3600160009054906101000a900473ffffffffffffffffffffffffffffffffffffffff1673ffffffffffffffffffffffffffffffffffffffff166305c58df2888887818110610a4f57610a4e612238565b5b905060200201356040518263ffffffff1660e01b8152600401610a729190611fb4565b60206040518083038186803b158015610a8a57600080fd5b505afa158015610a9e573d6000803e3d6000fd5b505050506040513d601f19601f82011682018060405250810190610ac29190611d0b565b6040518263ffffffff1660e01b8152600401610ade9190611fb4565b60206040518083038186803b158015610af657600080fd5b505afa158015610b0a573d6000803e3d6000fd5b505050506040513d601f19601f82011682018060405250810190610b2e9190611d0b565b11610ec057600160009054906101000a900473ffffffffffffffffffffffffffffffffffffffff1673ffffffffffffffffffffffffffffffffffffffff166390249448858584818110610b8457610b83612238565b5b905060200201356040518263ffffffff1660e01b8152600401610ba79190611fb4565b600060405180830381600087803b158015610bc157600080fd5b505af1158015610bd5573d6000803e3d6000fd5b505050506000600460009054906101000a900473ffffffffffffffffffffffffffffffffffffffff1673ffffffffffffffffffffffffffffffffffffffff1663d1d58b25868685818110610c2c57610c2b612238565b5b905060200201356040518263ffffffff1660e01b8152600401610c4f9190611fb4565b60206040518083038186803b158015610c6757600080fd5b505afa158015610c7b573d6000803e3d6000fd5b505050506040513d601f19601f82011682018060405250810190610c9f9190611d0b565b1115610d4c57600460009054906101000a900473ffffffffffffffffffffffffffffffffffffffff1673ffffffffffffffffffffffffffffffffffffffff1663379607f5858584818110610cf657610cf5612238565b5b905060200201356040518263ffffffff1660e01b8152600401610d199190611fb4565b600060405180830381600087803b158015610d3357600080fd5b505af1158015610d47573d6000803e3d6000fd5b505050505b6000600360009054906101000a900473ffffffffffffffffffffffffffffffffffffffff1673ffffffffffffffffffffffffffffffffffffffff1663d1d58b25868685818110610d9f57610d9e612238565b5b905060200201356040518263ffffffff1660e01b8152600401610dc29190611fb4565b60206040518083038186803b158015610dda57600080fd5b505afa158015610dee573d6000803e3d6000fd5b505050506040513d601f19601f82011682018060405250810190610e129190611d0b565b1115610ebf57600360009054906101000a900473ffffffffffffffffffffffffffffffffffffffff1673ffffffffffffffffffffffffffffffffffffffff1663379607f5858584818110610e6957610e68612238565b5b905060200201356040518263ffffffff1660e01b8152600401610e8c9190611fb4565b600060405180830381600087803b158015610ea657600080fd5b505af1158015610eba573d6000803e3d6000fd5b505050505b5b600560009054906101000a900473ffffffffffffffffffffffffffffffffffffffff1673ffffffffffffffffffffffffffffffffffffffff1663eed25028858584818110610f1157610f10612238565b5b905060200201356040518263ffffffff1660e01b8152600401610f349190611fb4565b60206040518083038186803b158015610f4c57600080fd5b505afa158015610f60573d6000803e3d6000fd5b505050506040513d601f19601f82011682018060405250810190610f849190611d0b565b4211801561105557506000600560009054906101000a900473ffffffffffffffffffffffffffffffffffffffff1673ffffffffffffffffffffffffffffffffffffffff16634bec27bd868685818110610fe057610fdf612238565b5b905060200201356040518263ffffffff1660e01b81526004016110039190611fb4565b60206040518083038186803b15801561101b57600080fd5b505afa15801561102f573d6000803e3d6000fd5b505050506040513d601f19601f820116820180604052508101906110539190611d0b565b115b1561112257600560009054906101000a900473ffffffffffffffffffffffffffffffffffffffff1673ffffffffffffffffffffffffffffffffffffffff1663b00b52f18585848181106110ab576110aa612238565b5b905060200201356040518263ffffffff1660e01b81526004016110ce9190611fb4565b602060405180830381600087803b1580156110e857600080fd5b505af11580156110fc573d6000803e3d6000fd5b505050506040513d601f19601f820116820180604052508101906111209190611d0b565b505b5b808061112e906121c0565b915050610514565b50505050565b60008060009054906101000a900473ffffffffffffffffffffffffffffffffffffffff16905090565b600082829050905060005b818110156114a0576000611246600160009054906101000a900473ffffffffffffffffffffffffffffffffffffffff1673ffffffffffffffffffffffffffffffffffffffff16633613a9f48787868181106111ce576111cd612238565b5b905060200201356040518263ffffffff1660e01b81526004016111f19190611fb4565b60206040518083038186803b15801561120957600080fd5b505afa15801561121d573d6000803e3d6000fd5b505050506040513d601f19601f820116820180604052508101906112419190611d0b565b6114a6565b9050600260009054906101000a900473ffffffffffffffffffffffffffffffffffffffff1673ffffffffffffffffffffffffffffffffffffffff1663c3c2407c86868581811061129957611298612238565b5b90506020020135600684600881106112b4576112b3612238565b5b016000600681106112c8576112c7612238565b5b600891828204019190066004029054906101000a900463ffffffff16600685600881106112f8576112f7612238565b5b0160016006811061130c5761130b612238565b5b600891828204019190066004029054906101000a900463ffffffff166006866008811061133c5761133b612238565b5b016002600681106113505761134f612238565b5b600891828204019190066004029054906101000a900463ffffffff16600687600881106113805761137f612238565b5b0160036006811061139457611393612238565b5b600891828204019190066004029054906101000a900463ffffffff16600688600881106113c4576113c3612238565b5b016004600681106113d8576113d7612238565b5b600891828204019190066004029054906101000a900463ffffffff166006896008811061140857611407612238565b5b0160056006811061141c5761141b612238565b5b600891828204019190066004029054906101000a900463ffffffff166040518863ffffffff1660e01b815260040161145a9796959493929190611fcf565b600060405180830381600087803b15801561147457600080fd5b505af1158015611488573d6000803e3d6000fd5b50505050508080611498906121c0565b915050611170565b50505050565b600060018214156114ba576000905061155c565b60028214156114cc576001905061155b565b60038214806114db5750600a82145b156114e9576002905061155a565b60048214156114fb5760039050611559565b600682148061150a5750600782145b156115185760049050611558565b600882141561152a5760059050611557565b60098214806115395750600582145b156115475760069050611556565b600b82141561155557600790505b5b5b5b5b5b5b5b919050565b600082829050905060005b8181101561162d57600160009054906101000a900473ffffffffffffffffffffffffffffffffffffffff1673ffffffffffffffffffffffffffffffffffffffff1663b00b52f18585848181106115c5576115c4612238565b5b905060200201356040518263ffffffff1660e01b81526004016115e89190611fb4565b600060405180830381600087803b15801561160257600080fd5b505af1158015611616573d6000803e3d6000fd5b505050508080611625906121c0565b91505061156c565b50505050565b6000600260009054906101000a900473ffffffffffffffffffffffffffffffffffffffff1673ffffffffffffffffffffffffffffffffffffffff16639ed24c8e6006846008811061168757611686612238565b5b0160006006811061169b5761169a612238565b5b600891828204019190066004029054906101000a900463ffffffff16600685600881106116cb576116ca612238565b5b016001600681106116df576116de612238565b5b600891828204019190066004029054906101000a900463ffffffff166006866008811061170f5761170e612238565b5b0160026006811061172357611722612238565b5b600891828204019190066004029054906101000a900463ffffffff166006876008811061175357611752612238565b5b0160036006811061176757611766612238565b5b600891828204019190066004029054906101000a900463ffffffff166006886008811061179757611796612238565b5b016004600681106117ab576117aa612238565b5b600891828204019190066004029054906101000a900463ffffffff16600689600881106117db576117da612238565b5b016005600681106117ef576117ee612238565b5b600891828204019190066004029054906101000a900463ffffffff166040518763ffffffff1660e01b815260040161182c9695949392919061203e565b60206040518083038186803b15801561184457600080fd5b505afa158015611858573d6000803e3d6000fd5b505050506040513d601f19601f8201168201806040525081019061187c9190611d0b565b9050919050565b600160009054906101000a900473ffffffffffffffffffffffffffffffffffffffff1681565b6118b16119a1565b73ffffffffffffffffffffffffffffffffffffffff166118cf61113c565b73ffffffffffffffffffffffffffffffffffffffff1614611925576040517f08c379a000000000000000000000000000000000000000000000000000000000815260040161191c90611f94565b60405180910390fd5b600073ffffffffffffffffffffffffffffffffffffffff168173ffffffffffffffffffffffffffffffffffffffff161415611995576040517f08c379a000000000000000000000000000000000000000000000000000000000815260040161198c90611f74565b60405180910390fd5b61199e816119a9565b50565b600033905090565b60008060009054906101000a900473ffffffffffffffffffffffffffffffffffffffff169050816000806101000a81548173ffffffffffffffffffffffffffffffffffffffff021916908373ffffffffffffffffffffffffffffffffffffffff1602179055508173ffffffffffffffffffffffffffffffffffffffff168173ffffffffffffffffffffffffffffffffffffffff167f8be0079c531659141344cd1fd0a4f28419497f9722a3daafe3b4186f6b6457e060405160405180910390a35050565b600081359050611a7c81612309565b92915050565b600081519050611a9181612309565b92915050565b60008083601f840112611aad57611aac61226c565b5b8235905067ffffffffffffffff811115611aca57611ac9612267565b5b602083019150836020820283011115611ae657611ae5612271565b5b9250929050565b600081519050611afc81612320565b92915050565b60008083601f840112611b1857611b1761226c565b5b8235905067ffffffffffffffff811115611b3557611b34612267565b5b602083019150836001820283011115611b5157611b50612271565b5b9250929050565b600081359050611b6781612337565b92915050565b600081519050611b7c81612337565b92915050565b600060208284031215611b9857611b9761227b565b5b6000611ba684828501611a6d565b91505092915050565b600060208284031215611bc557611bc461227b565b5b6000611bd384828501611a82565b91505092915050565b600080600080600060808688031215611bf857611bf761227b565b5b6000611c0688828901611a6d565b9550506020611c1788828901611a6d565b9450506040611c2888828901611b58565b935050606086013567ffffffffffffffff811115611c4957611c48612276565b5b611c5588828901611b02565b92509250509295509295909350565b60008060208385031215611c7b57611c7a61227b565b5b600083013567ffffffffffffffff811115611c9957611c98612276565b5b611ca585828601611a97565b92509250509250929050565b600060208284031215611cc757611cc661227b565b5b6000611cd584828501611aed565b91505092915050565b600060208284031215611cf457611cf361227b565b5b6000611d0284828501611b58565b91505092915050565b600060208284031215611d2157611d2061227b565b5b6000611d2f84828501611b6d565b91505092915050565b611d41816120c1565b82525050565b611d50816120df565b82525050565b6000611d62838561209f565b9350611d6f8385846121b1565b611d7883612280565b840190509392505050565b611d8c81612145565b82525050565b611d9b81612157565b82525050565b611daa81612169565b82525050565b6000611dbd6026836120b0565b9150611dc882612291565b604082019050919050565b6000611de06020836120b0565b9150611deb826122e0565b602082019050919050565b611dff8161212b565b82525050565b611e0e8161219f565b82525050565b611e1d81612135565b82525050565b6000602082019050611e386000830184611d38565b92915050565b6000604082019050611e536000830185611d38565b611e606020830184611d38565b9392505050565b600060c082019050611e7c600083018a611d38565b611e896020830189611d38565b611e966040830188611d38565b611ea36060830187611df6565b8181036080830152611eb6818587611d56565b9050611ec560a0830184611df6565b98975050505050505050565b6000606082019050611ee66000830186611d38565b611ef36020830185611d38565b611f006040830184611df6565b949350505050565b6000602082019050611f1d6000830184611d47565b92915050565b6000602082019050611f386000830184611d83565b92915050565b6000602082019050611f536000830184611d92565b92915050565b6000602082019050611f6e6000830184611da1565b92915050565b60006020820190508181036000830152611f8d81611db0565b9050919050565b60006020820190508181036000830152611fad81611dd3565b9050919050565b6000602082019050611fc96000830184611df6565b92915050565b600060e082019050611fe4600083018a611df6565b611ff16020830189611e14565b611ffe6040830188611e14565b61200b6060830187611e14565b6120186080830186611e14565b61202560a0830185611e14565b61203260c0830184611e14565b98975050505050505050565b600060c0820190506120536000830189611e05565b6120606020830188611e05565b61206d6040830187611e05565b61207a6060830186611e05565b6120876080830185611e05565b61209460a0830184611e05565b979650505050505050565b600082825260208201905092915050565b600082825260208201905092915050565b60006120cc8261210b565b9050919050565b60008115159050919050565b60007fffffffff0000000000000000000000000000000000000000000000000000000082169050919050565b600073ffffffffffffffffffffffffffffffffffffffff82169050919050565b6000819050919050565b600063ffffffff82169050919050565b60006121508261217b565b9050919050565b60006121628261217b565b9050919050565b60006121748261217b565b9050919050565b60006121868261218d565b9050919050565b60006121988261210b565b9050919050565b60006121aa82612135565b9050919050565b82818337600083830152505050565b60006121cb8261212b565b91507fffffffffffffffffffffffffffffffffffffffffffffffffffffffffffffffff8214156121fe576121fd612209565b5b600182019050919050565b7f4e487b7100000000000000000000000000000000000000000000000000000000600052601160045260246000fd5b7f4e487b7100000000000000000000000000000000000000000000000000000000600052603260045260246000fd5b600080fd5b600080fd5b600080fd5b600080fd5b600080fd5b6000601f19601f8301169050919050565b7f4f776e61626c653a206e6577206f776e657220697320746865207a65726f206160008201527f6464726573730000000000000000000000000000000000000000000000000000602082015250565b7f4f776e61626c653a2063616c6c6572206973206e6f7420746865206f776e6572600082015250565b612312816120c1565b811461231d57600080fd5b50565b612329816120d3565b811461233457600080fd5b50565b6123408161212b565b811461234b57600080fd5b5056fea26469706673582212207d2e80cb0c616c3a742a8509e888838e95006ab54c1d7cd3e28d131ce5eee0f564736f6c63430008070033",
  "linkReferences": {},
  "deployedLinkReferences": {}
}