{
  "_format": "hh-sol-artifact-1",
  "contractName": "rarity",
  "sourceName": "contracts/Rarity.sol",
  "abi": [
    {
      "anonymous": false,
      "inputs": [
        {
          "indexed": true,
          "internalType": "address",
          "name": "owner",
          "type": "address"
        },
        {
          "indexed": true,
          "internalType": "address",
          "name": "approved",
          "type": "address"
        },
        {
          "indexed": true,
          "internalType": "uint256",
          "name": "tokenId",
          "type": "uint256"
        }
      ],
      "name": "Approval",
      "type": "event"
    },
    {
      "anonymous": false,
      "inputs": [
        {
          "indexed": true,
          "internalType": "address",
          "name": "owner",
          "type": "address"
        },
        {
          "indexed": true,
          "internalType": "address",
          "name": "operator",
          "type": "address"
        },
        {
          "indexed": false,
          "internalType": "bool",
          "name": "approved",
          "type": "bool"
        }
      ],
      "name": "ApprovalForAll",
      "type": "event"
    },
    {
      "anonymous": false,
      "inputs": [
        {
          "indexed": true,
          "internalType": "address",
          "name": "from",
          "type": "address"
        },
        {
          "indexed": true,
          "internalType": "address",
          "name": "to",
          "type": "address"
        },
        {
          "indexed": true,
          "internalType": "uint256",
          "name": "tokenId",
          "type": "uint256"
        }
      ],
      "name": "Transfer",
      "type": "event"
    },
    {
      "anonymous": false,
      "inputs": [
        {
          "indexed": true,
          "internalType": "address",
          "name": "owner",
          "type": "address"
        },
        {
          "indexed": false,
          "internalType": "uint256",
          "name": "level",
          "type": "uint256"
        },
        {
          "indexed": false,
          "internalType": "uint256",
          "name": "summoner",
          "type": "uint256"
        }
      ],
      "name": "leveled",
      "type": "event"
    },
    {
      "anonymous": false,
      "inputs": [
        {
          "indexed": true,
          "internalType": "address",
          "name": "owner",
          "type": "address"
        },
        {
          "indexed": false,
          "internalType": "uint256",
          "name": "class",
          "type": "uint256"
        },
        {
          "indexed": false,
          "internalType": "uint256",
          "name": "summoner",
          "type": "uint256"
        }
      ],
      "name": "summoned",
      "type": "event"
    },
    {
      "inputs": [
        {
          "internalType": "uint256",
          "name": "_summoner",
          "type": "uint256"
        }
      ],
      "name": "adventure",
      "outputs": [],
      "stateMutability": "nonpayable",
      "type": "function"
    },
    {
      "inputs": [
        {
          "internalType": "uint256",
          "name": "",
          "type": "uint256"
        }
      ],
      "name": "adventurers_log",
      "outputs": [
        {
          "internalType": "uint256",
          "name": "",
          "type": "uint256"
        }
      ],
      "stateMutability": "view",
      "type": "function"
    },
    {
      "inputs": [
        {
          "internalType": "address",
          "name": "to",
          "type": "address"
        },
        {
          "internalType": "uint256",
          "name": "tokenId",
          "type": "uint256"
        }
      ],
      "name": "approve",
      "outputs": [],
      "stateMutability": "nonpayable",
      "type": "function"
    },
    {
      "inputs": [
        {
          "internalType": "address",
          "name": "owner",
          "type": "address"
        }
      ],
      "name": "balanceOf",
      "outputs": [
        {
          "internalType": "uint256",
          "name": "",
          "type": "uint256"
        }
      ],
      "stateMutability": "view",
      "type": "function"
    },
    {
      "inputs": [
        {
          "internalType": "uint256",
          "name": "",
          "type": "uint256"
        }
      ],
      "name": "class",
      "outputs": [
        {
          "internalType": "uint256",
          "name": "",
          "type": "uint256"
        }
      ],
      "stateMutability": "view",
      "type": "function"
    },
    {
      "inputs": [
        {
          "internalType": "uint256",
          "name": "id",
          "type": "uint256"
        }
      ],
      "name": "classes",
      "outputs": [
        {
          "internalType": "string",
          "name": "description",
          "type": "string"
        }
      ],
      "stateMutability": "pure",
      "type": "function"
    },
    {
      "inputs": [
        {
          "internalType": "uint256",
          "name": "tokenId",
          "type": "uint256"
        }
      ],
      "name": "getApproved",
      "outputs": [
        {
          "internalType": "address",
          "name": "",
          "type": "address"
        }
      ],
      "stateMutability": "view",
      "type": "function"
    },
    {
      "inputs": [
        {
          "internalType": "address",
          "name": "owner",
          "type": "address"
        },
        {
          "internalType": "address",
          "name": "operator",
          "type": "address"
        }
      ],
      "name": "isApprovedForAll",
      "outputs": [
        {
          "internalType": "bool",
          "name": "",
          "type": "bool"
        }
      ],
      "stateMutability": "view",
      "type": "function"
    },
    {
      "inputs": [
        {
          "internalType": "uint256",
          "name": "",
          "type": "uint256"
        }
      ],
      "name": "level",
      "outputs": [
        {
          "internalType": "uint256",
          "name": "",
          "type": "uint256"
        }
      ],
      "stateMutability": "view",
      "type": "function"
    },
    {
      "inputs": [
        {
          "internalType": "uint256",
          "name": "_summoner",
          "type": "uint256"
        }
      ],
      "name": "level_up",
      "outputs": [],
      "stateMutability": "nonpayable",
      "type": "function"
    },
    {
      "inputs": [],
      "name": "name",
      "outputs": [
        {
          "internalType": "string",
          "name": "",
          "type": "string"
        }
      ],
      "stateMutability": "view",
      "type": "function"
    },
    {
      "inputs": [],
      "name": "next_summoner",
      "outputs": [
        {
          "internalType": "uint256",
          "name": "",
          "type": "uint256"
        }
      ],
      "stateMutability": "view",
      "type": "function"
    },
    {
      "inputs": [
        {
          "internalType": "uint256",
          "name": "tokenId",
          "type": "uint256"
        }
      ],
      "name": "ownerOf",
      "outputs": [
        {
          "internalType": "address",
          "name": "",
          "type": "address"
        }
      ],
      "stateMutability": "view",
      "type": "function"
    },
    {
      "inputs": [
        {
          "internalType": "address",
          "name": "from",
          "type": "address"
        },
        {
          "internalType": "address",
          "name": "to",
          "type": "address"
        },
        {
          "internalType": "uint256",
          "name": "tokenId",
          "type": "uint256"
        }
      ],
      "name": "safeTransferFrom",
      "outputs": [],
      "stateMutability": "nonpayable",
      "type": "function"
    },
    {
      "inputs": [
        {
          "internalType": "address",
          "name": "from",
          "type": "address"
        },
        {
          "internalType": "address",
          "name": "to",
          "type": "address"
        },
        {
          "internalType": "uint256",
          "name": "tokenId",
          "type": "uint256"
        },
        {
          "internalType": "bytes",
          "name": "_data",
          "type": "bytes"
        }
      ],
      "name": "safeTransferFrom",
      "outputs": [],
      "stateMutability": "nonpayable",
      "type": "function"
    },
    {
      "inputs": [
        {
          "internalType": "address",
          "name": "operator",
          "type": "address"
        },
        {
          "internalType": "bool",
          "name": "approved",
          "type": "bool"
        }
      ],
      "name": "setApprovalForAll",
      "outputs": [],
      "stateMutability": "nonpayable",
      "type": "function"
    },
    {
      "inputs": [
        {
          "internalType": "uint256",
          "name": "_summoner",
          "type": "uint256"
        },
        {
          "internalType": "uint256",
          "name": "_xp",
          "type": "uint256"
        }
      ],
      "name": "spend_xp",
      "outputs": [],
      "stateMutability": "nonpayable",
      "type": "function"
    },
    {
      "inputs": [
        {
          "internalType": "uint256",
          "name": "_class",
          "type": "uint256"
        }
      ],
      "name": "summon",
      "outputs": [],
      "stateMutability": "nonpayable",
      "type": "function"
    },
    {
      "inputs": [
        {
          "internalType": "uint256",
          "name": "_summoner",
          "type": "uint256"
        }
      ],
      "name": "summoner",
      "outputs": [
        {
          "internalType": "uint256",
          "name": "_xp",
          "type": "uint256"
        },
        {
          "internalType": "uint256",
          "name": "_log",
          "type": "uint256"
        },
        {
          "internalType": "uint256",
          "name": "_class",
          "type": "uint256"
        },
        {
          "internalType": "uint256",
          "name": "_level",
          "type": "uint256"
        }
      ],
      "stateMutability": "view",
      "type": "function"
    },
    {
      "inputs": [],
      "name": "symbol",
      "outputs": [
        {
          "internalType": "string",
          "name": "",
          "type": "string"
        }
      ],
      "stateMutability": "view",
      "type": "function"
    },
    {
      "inputs": [
        {
          "internalType": "uint256",
          "name": "_summoner",
          "type": "uint256"
        }
      ],
      "name": "tokenURI",
      "outputs": [
        {
          "internalType": "string",
          "name": "",
          "type": "string"
        }
      ],
      "stateMutability": "view",
      "type": "function"
    },
    {
      "inputs": [
        {
          "internalType": "address",
          "name": "from",
          "type": "address"
        },
        {
          "internalType": "address",
          "name": "to",
          "type": "address"
        },
        {
          "internalType": "uint256",
          "name": "tokenId",
          "type": "uint256"
        }
      ],
      "name": "transferFrom",
      "outputs": [],
      "stateMutability": "nonpayable",
      "type": "function"
    },
    {
      "inputs": [
        {
          "internalType": "uint256",
          "name": "",
          "type": "uint256"
        }
      ],
      "name": "xp",
      "outputs": [
        {
          "internalType": "uint256",
          "name": "",
          "type": "uint256"
        }
      ],
      "stateMutability": "view",
      "type": "function"
    },
    {
      "inputs": [
        {
          "internalType": "uint256",
          "name": "curent_level",
          "type": "uint256"
        }
      ],
      "name": "xp_required",
      "outputs": [
        {
          "internalType": "uint256",
          "name": "xp_to_next_level",
          "type": "uint256"
        }
      ],
      "stateMutability": "pure",
      "type": "function"
    }
  ],
  "bytecode": "0x608060405234801561001057600080fd5b5061383d806100206000396000f3fe608060405234801561001057600080fd5b50600436106101585760003560e01c806390249448116100c3578063b88d4fde1161007c578063b88d4fde146103fb578063c363b9eb14610417578063c87b56dd1461044a578063e58410bb1461047a578063e985e9c514610496578063eed25028146104c657610158565b8063902494481461032957806394b69ffa1461034557806395d89b4114610375578063a22cb46514610393578063aca10be3146103af578063b00b52f1146103df57610158565b806323b872dd1161011557806323b872dd146102315780633613a9f41461024d57806342842e0e1461027d5780636352211e1461029957806370a08231146102c9578063817dbe9f146102f957610158565b8063035d9f2a1461015d57806305c58df21461017957806306fdde03146101a957806307b018ef146101c7578063081812fc146101e5578063095ea7b314610215575b600080fd5b61017760048036038101906101729190612398565b6104f6565b005b610193600480360381019061018e9190612398565b6105bf565b6040516101a09190612b4d565b60405180910390f35b6101b16105d7565b6040516101be919061298b565b60405180910390f35b6101cf610610565b6040516101dc9190612b4d565b60405180910390f35b6101ff60048036038101906101fa9190612398565b610616565b60405161020c9190612909565b60405180910390f35b61022f600480360381019061022a919061232b565b61069b565b005b61024b60048036038101906102469190612215565b6107a5565b005b61026760048036038101906102629190612398565b6107fe565b6040516102749190612b4d565b60405180910390f35b61029760048036038101906102929190612215565b610816565b005b6102b360048036038101906102ae9190612398565b610836565b6040516102c09190612909565b60405180910390f35b6102e360048036038101906102de91906121a8565b6108e7565b6040516102f09190612b4d565b60405180910390f35b610313600480360381019061030e9190612398565b61099f565b604051610320919061298b565b60405180910390f35b610343600480360381019061033e9190612398565b610ca9565b005b61035f600480360381019061035a9190612398565b610d84565b60405161036c9190612b4d565b60405180910390f35b61037d610d9c565b60405161038a919061298b565b60405180910390f35b6103ad60048036038101906103a891906122eb565b610dd5565b005b6103c960048036038101906103c49190612398565b610f41565b6040516103d69190612b4d565b60405180910390f35b6103f960048036038101906103f49190612398565b610fa4565b005b61041560048036038101906104109190612268565b611032565b005b610431600480360381019061042c9190612398565b61108d565b6040516104419493929190612b91565b60405180910390f35b610464600480360381019061045f9190612398565b6110f2565b604051610471919061298b565b60405180910390f35b610494600480360381019061048f91906123c5565b611449565b005b6104b060048036038101906104ab91906121d5565b61148a565b6040516104bd9190612970565b60405180910390f35b6104e060048036038101906104db9190612398565b61151e565b6040516104ed9190612b4d565b60405180910390f35b806001111580156105085750600b8111155b61051157600080fd5b60006004549050816007600083815260200190815260200160002081905550600160086000838152602001908152602001600020819055506105533382611536565b3373ffffffffffffffffffffffffffffffffffffffff167f13635f4880051027279fad8cb34c7f6b430bee464ad05f777d9abff668fc1be8838360405161059b929190612b68565b60405180910390a2600460008154809291906105b690612e6b565b91905055505050565b60086020528060005260406000206000915090505481565b6040518060400160405280601181526020017f526172697479204d616e6966657374656400000000000000000000000000000081525081565b60045481565b600061062182611554565b610660576040517f08c379a000000000000000000000000000000000000000000000000000000000815260040161065790612acd565b60405180910390fd5b6002600083815260200190815260200160002060009054906101000a900473ffffffffffffffffffffffffffffffffffffffff169050919050565b60006106a682610836565b90508073ffffffffffffffffffffffffffffffffffffffff168373ffffffffffffffffffffffffffffffffffffffff161415610717576040517f08c379a000000000000000000000000000000000000000000000000000000000815260040161070e90612b0d565b60405180910390fd5b8073ffffffffffffffffffffffffffffffffffffffff163373ffffffffffffffffffffffffffffffffffffffff1614806107575750610756813361148a565b5b610796576040517f08c379a000000000000000000000000000000000000000000000000000000000815260040161078d90612a4d565b60405180910390fd5b6107a083836115bf565b505050565b6107af3382611678565b6107ee576040517f08c379a00000000000000000000000000000000000000000000000000000000081526004016107e590612b2d565b60405180910390fd5b6107f9838383611756565b505050565b60076020528060005260406000206000915090505481565b61083183838360405180602001604052806000815250611032565b505050565b60008060008084815260200190815260200160002060009054906101000a900473ffffffffffffffffffffffffffffffffffffffff169050600073ffffffffffffffffffffffffffffffffffffffff168173ffffffffffffffffffffffffffffffffffffffff1614156108de576040517f08c379a00000000000000000000000000000000000000000000000000000000081526004016108d590612a8d565b60405180910390fd5b80915050919050565b60008073ffffffffffffffffffffffffffffffffffffffff168273ffffffffffffffffffffffffffffffffffffffff161415610958576040517f08c379a000000000000000000000000000000000000000000000000000000000815260040161094f90612a6d565b60405180910390fd5b600160008373ffffffffffffffffffffffffffffffffffffffff1673ffffffffffffffffffffffffffffffffffffffff168152602001908152602001600020549050919050565b606060018214156109e7576040518060400160405280600981526020017f42617262617269616e00000000000000000000000000000000000000000000008152509050610ca4565b6002821415610a2d576040518060400160405280600481526020017f42617264000000000000000000000000000000000000000000000000000000008152509050610ca4565b6003821415610a73576040518060400160405280600681526020017f436c6572696300000000000000000000000000000000000000000000000000008152509050610ca4565b6004821415610ab9576040518060400160405280600581526020017f44727569640000000000000000000000000000000000000000000000000000008152509050610ca4565b6005821415610aff576040518060400160405280600781526020017f46696768746572000000000000000000000000000000000000000000000000008152509050610ca4565b6006821415610b45576040518060400160405280600481526020017f4d6f6e6b000000000000000000000000000000000000000000000000000000008152509050610ca4565b6007821415610b8b576040518060400160405280600781526020017f50616c6164696e000000000000000000000000000000000000000000000000008152509050610ca4565b6008821415610bd1576040518060400160405280600681526020017f52616e67657200000000000000000000000000000000000000000000000000008152509050610ca4565b6009821415610c17576040518060400160405280600581526020017f526f6775650000000000000000000000000000000000000000000000000000008152509050610ca4565b600a821415610c5d576040518060400160405280600881526020017f536f7263657265720000000000000000000000000000000000000000000000008152509050610ca4565b600b821415610ca3576040518060400160405280600681526020017f57697a61726400000000000000000000000000000000000000000000000000008152509050610ca4565b5b919050565b610cb33382611678565b610cbc57600080fd5b6000600860008381526020019081526020016000205490506000610cdf82610f41565b905080600560008581526020019081526020016000206000828254610d049190612d50565b92505081905550600182610d189190612c6f565b60086000858152602001908152602001600020819055503373ffffffffffffffffffffffffffffffffffffffff167f943b00a67689342d89989c0bf7b5f4840b8c5a29e1383dc391a903626b3327c08385604051610d77929190612b68565b60405180910390a2505050565b60056020528060005260406000206000915090505481565b6040518060400160405280600281526020017f524d00000000000000000000000000000000000000000000000000000000000081525081565b3373ffffffffffffffffffffffffffffffffffffffff168273ffffffffffffffffffffffffffffffffffffffff161415610e44576040517f08c379a0000000000000000000000000000000000000000000000000000000008152600401610e3b90612a0d565b60405180910390fd5b80600360003373ffffffffffffffffffffffffffffffffffffffff1673ffffffffffffffffffffffffffffffffffffffff16815260200190815260200160002060008473ffffffffffffffffffffffffffffffffffffffff1673ffffffffffffffffffffffffffffffffffffffff16815260200190815260200160002060006101000a81548160ff0219169083151502179055508173ffffffffffffffffffffffffffffffffffffffff163373ffffffffffffffffffffffffffffffffffffffff167f17307eab39ab6107e8899845ad3d59bd9653f200f220920489ca2b5937696c3183604051610f359190612970565b60405180910390a35050565b6000683635c9adc5dea0000082610f589190612cf6565b90506000600190505b82811015610f9e57683635c9adc5dea0000081610f7e9190612cf6565b82610f899190612c6f565b91508080610f9690612e6b565b915050610f61565b50919050565b610fae3382611678565b610fb757600080fd5b60066000828152602001908152602001600020544211610fd657600080fd5b6201518042610fe59190612c6f565b6006600083815260200190815260200160002081905550680d8d726b7177a800006005600083815260200190815260200160002060008282546110289190612c6f565b9250508190555050565b61103c3383611678565b61107b576040517f08c379a000000000000000000000000000000000000000000000000000000000815260040161107290612b2d565b60405180910390fd5b611087848484846119af565b50505050565b600080600080600560008681526020019081526020016000205493506006600086815260200190815260200160002054925060076000868152602001908152602001600020549150600860008681526020019081526020016000205490509193509193565b60606110fc6120bd565b60405180610120016040528060fd81526020016136a360fd91398160006007811061112a57611129612f43565b5b602002018190525061114e600760008581526020019081526020016000205461099f565b60405160200161115e9190612897565b6040516020818303038152906040528160016007811061118157611180612f43565b5b60200201819052506040518060600160405280602881526020016137e060289139816002600781106111b6576111b5612f43565b5b60200201819052506111da6008600085815260200190815260200160002054611a0b565b6040516020016111ea919061286a565b6040516020818303038152906040528160036007811061120d5761120c612f43565b5b602002018190525060405180606001604052806028815260200161367b602891398160046007811061124257611241612f43565b5b6020020181905250611279670de0b6b3a764000060056000868152602001908152602001600020546112749190612cc5565b611a0b565b604051602001611289919061281b565b604051602081830303815290604052816005600781106112ac576112ab612f43565b5b60200201819052506040518060400160405280600d81526020017f3c2f746578743e3c2f7376673e00000000000000000000000000000000000000815250816006600781106112fe576112fd612f43565b5b602002018190525060008160006007811061131c5761131b612f43565b5b60200201518260016007811061133557611334612f43565b5b60200201518360026007811061134e5761134d612f43565b5b60200201518460036007811061136757611366612f43565b5b6020020151856004600781106113805761137f612f43565b5b60200201518660056007811061139957611398612f43565b5b6020020151876006600781106113b2576113b1612f43565b5b60200201516040516020016113cd97969594939291906127b6565b6040516020818303038152906040529050600061141a6113ec86611a0b565b6113f584611b6c565b6040516020016114069291906128c4565b604051602081830303815290604052611b6c565b90508060405160200161142d9190612848565b6040516020818303038152906040529150819350505050919050565b6114533383611678565b61145c57600080fd5b8060056000848152602001908152602001600020600082825461147f9190612d50565b925050819055505050565b6000600360008473ffffffffffffffffffffffffffffffffffffffff1673ffffffffffffffffffffffffffffffffffffffff16815260200190815260200160002060008373ffffffffffffffffffffffffffffffffffffffff1673ffffffffffffffffffffffffffffffffffffffff16815260200190815260200160002060009054906101000a900460ff16905092915050565b60066020528060005260406000206000915090505481565b611550828260405180602001604052806000815250611d04565b5050565b60008073ffffffffffffffffffffffffffffffffffffffff1660008084815260200190815260200160002060009054906101000a900473ffffffffffffffffffffffffffffffffffffffff1673ffffffffffffffffffffffffffffffffffffffff1614159050919050565b816002600083815260200190815260200160002060006101000a81548173ffffffffffffffffffffffffffffffffffffffff021916908373ffffffffffffffffffffffffffffffffffffffff160217905550808273ffffffffffffffffffffffffffffffffffffffff1661163283610836565b73ffffffffffffffffffffffffffffffffffffffff167f8c5be1e5ebec7d5bd14f71427d1e84f3dd0314c0f7b2291e5b200ac8c7c3b92560405160405180910390a45050565b600061168382611554565b6116c2576040517f08c379a00000000000000000000000000000000000000000000000000000000081526004016116b990612a2d565b60405180910390fd5b60006116cd83610836565b90508073ffffffffffffffffffffffffffffffffffffffff168473ffffffffffffffffffffffffffffffffffffffff16148061173c57508373ffffffffffffffffffffffffffffffffffffffff1661172484610616565b73ffffffffffffffffffffffffffffffffffffffff16145b8061174d575061174c818561148a565b5b91505092915050565b8273ffffffffffffffffffffffffffffffffffffffff1661177682610836565b73ffffffffffffffffffffffffffffffffffffffff16146117cc576040517f08c379a00000000000000000000000000000000000000000000000000000000081526004016117c390612aed565b60405180910390fd5b600073ffffffffffffffffffffffffffffffffffffffff168273ffffffffffffffffffffffffffffffffffffffff16141561183c576040517f08c379a0000000000000000000000000000000000000000000000000000000008152600401611833906129ed565b60405180910390fd5b611847838383611d5f565b6118526000826115bf565b60018060008573ffffffffffffffffffffffffffffffffffffffff1673ffffffffffffffffffffffffffffffffffffffff16815260200190815260200160002060008282546118a19190612d50565b9250508190555060018060008473ffffffffffffffffffffffffffffffffffffffff1673ffffffffffffffffffffffffffffffffffffffff16815260200190815260200160002060008282546118f79190612c6f565b925050819055508160008083815260200190815260200160002060006101000a81548173ffffffffffffffffffffffffffffffffffffffff021916908373ffffffffffffffffffffffffffffffffffffffff160217905550808273ffffffffffffffffffffffffffffffffffffffff168473ffffffffffffffffffffffffffffffffffffffff167fddf252ad1be2c89b69c2b068fc378daa952ba7f163c4a11628f55a4df523b3ef60405160405180910390a4505050565b6119ba848484611756565b6119c684848484611d64565b611a05576040517f08c379a00000000000000000000000000000000000000000000000000000000081526004016119fc906129ad565b60405180910390fd5b50505050565b60606000821415611a53576040518060400160405280600181526020017f30000000000000000000000000000000000000000000000000000000000000008152509050611b67565b600082905060005b60008214611a85578080611a6e90612e6b565b915050600a82611a7e9190612cc5565b9150611a5b565b60008167ffffffffffffffff811115611aa157611aa0612f72565b5b6040519080825280601f01601f191660200182016040528015611ad35781602001600182028036833780820191505090505b5090505b60008514611b6057600182611aec9190612d50565b9150600a85611afb9190612eb4565b6030611b079190612c6f565b60f81b818381518110611b1d57611b1c612f43565b5b60200101907effffffffffffffffffffffffffffffffffffffffffffffffffffffffffffff1916908160001a905350600a85611b599190612cc5565b9450611ad7565b8093505050505b919050565b60606000825190506000811415611b955760405180602001604052806000815250915050611cff565b60006003600283611ba69190612c6f565b611bb09190612cc5565b6004611bbc9190612cf6565b90506000602082611bcd9190612c6f565b67ffffffffffffffff811115611be657611be5612f72565b5b6040519080825280601f01601f191660200182016040528015611c185781602001600182028036833780820191505090505b50905060006040518060600160405280604081526020016137a0604091399050600181016020830160005b86811015611cbc5760038101905062ffffff818a015116603f8160121c168401518060081b905060ff603f83600c1c1686015116810190508060081b905060ff603f8360061c1686015116810190508060081b905060ff603f831686015116810190508060e01b90508084526004840193505050611c43565b506003860660018114611cd65760028114611ce657611cf1565b613d3d60f01b6002830352611cf1565b603d60f81b60018303525b508484525050819450505050505b919050565b611d0e8383611ede565b611d1b6000848484611d64565b611d5a576040517f08c379a0000000000000000000000000000000000000000000000000000000008152600401611d51906129ad565b60405180910390fd5b505050565b505050565b6000611d6f846120aa565b15611ed1578373ffffffffffffffffffffffffffffffffffffffff1663150b7a02338786866040518563ffffffff1660e01b8152600401611db39493929190612924565b602060405180830381600087803b158015611dcd57600080fd5b505af1925050508015611dfe57506040513d601f19601f82011682018060405250810190611dfb919061236b565b60015b611e81573d8060008114611e2e576040519150601f19603f3d011682016040523d82523d6000602084013e611e33565b606091505b50600081511415611e79576040517f08c379a0000000000000000000000000000000000000000000000000000000008152600401611e70906129ad565b60405180910390fd5b805181602001fd5b63150b7a0260e01b7bffffffffffffffffffffffffffffffffffffffffffffffffffffffff1916817bffffffffffffffffffffffffffffffffffffffffffffffffffffffff191614915050611ed6565b600190505b949350505050565b600073ffffffffffffffffffffffffffffffffffffffff168273ffffffffffffffffffffffffffffffffffffffff161415611f4e576040517f08c379a0000000000000000000000000000000000000000000000000000000008152600401611f4590612aad565b60405180910390fd5b611f5781611554565b15611f97576040517f08c379a0000000000000000000000000000000000000000000000000000000008152600401611f8e906129cd565b60405180910390fd5b611fa360008383611d5f565b60018060008473ffffffffffffffffffffffffffffffffffffffff1673ffffffffffffffffffffffffffffffffffffffff1681526020019081526020016000206000828254611ff29190612c6f565b925050819055508160008083815260200190815260200160002060006101000a81548173ffffffffffffffffffffffffffffffffffffffff021916908373ffffffffffffffffffffffffffffffffffffffff160217905550808273ffffffffffffffffffffffffffffffffffffffff16600073ffffffffffffffffffffffffffffffffffffffff167fddf252ad1be2c89b69c2b068fc378daa952ba7f163c4a11628f55a4df523b3ef60405160405180910390a45050565b600080823b905060008111915050919050565b6040518060e001604052806007905b60608152602001906001900390816120cc5790505090565b60006120f76120f284612bfb565b612bd6565b90508281526020810184848401111561211357612112612fa6565b5b61211e848285612df8565b509392505050565b6000813590506121358161361e565b92915050565b60008135905061214a81613635565b92915050565b60008151905061215f8161364c565b92915050565b600082601f83011261217a57612179612fa1565b5b813561218a8482602086016120e4565b91505092915050565b6000813590506121a281613663565b92915050565b6000602082840312156121be576121bd612fb0565b5b60006121cc84828501612126565b91505092915050565b600080604083850312156121ec576121eb612fb0565b5b60006121fa85828601612126565b925050602061220b85828601612126565b9150509250929050565b60008060006060848603121561222e5761222d612fb0565b5b600061223c86828701612126565b935050602061224d86828701612126565b925050604061225e86828701612193565b9150509250925092565b6000806000806080858703121561228257612281612fb0565b5b600061229087828801612126565b94505060206122a187828801612126565b93505060406122b287828801612193565b925050606085013567ffffffffffffffff8111156122d3576122d2612fab565b5b6122df87828801612165565b91505092959194509250565b6000806040838503121561230257612301612fb0565b5b600061231085828601612126565b92505060206123218582860161213b565b9150509250929050565b6000806040838503121561234257612341612fb0565b5b600061235085828601612126565b925050602061236185828601612193565b9150509250929050565b60006020828403121561238157612380612fb0565b5b600061238f84828501612150565b91505092915050565b6000602082840312156123ae576123ad612fb0565b5b60006123bc84828501612193565b91505092915050565b600080604083850312156123dc576123db612fb0565b5b60006123ea85828601612193565b92505060206123fb85828601612193565b9150509250929050565b61240e81612d84565b82525050565b61241d81612d96565b82525050565b600061242e82612c2c565b6124388185612c42565b9350612448818560208601612e07565b61245181612fb5565b840191505092915050565b600061246782612c37565b6124718185612c53565b9350612481818560208601612e07565b61248a81612fb5565b840191505092915050565b60006124a082612c37565b6124aa8185612c64565b93506124ba818560208601612e07565b80840191505092915050565b60006124d3603283612c53565b91506124de82612fc6565b604082019050919050565b60006124f6601c83612c53565b915061250182613015565b602082019050919050565b600061251a61014683612c64565b91506125258261303e565b61014682019050919050565b600061253e602483612c53565b9150612549826131e6565b604082019050919050565b6000612561601983612c53565b915061256c82613235565b602082019050919050565b6000612584600283612c64565b915061258f8261325e565b600282019050919050565b60006125a7602c83612c53565b91506125b282613287565b604082019050919050565b60006125ca600183612c64565b91506125d5826132d6565b600182019050919050565b60006125ed603883612c53565b91506125f8826132ff565b604082019050919050565b6000612610602a83612c53565b915061261b8261334e565b604082019050919050565b6000612633602983612c53565b915061263e8261339d565b604082019050919050565b6000612656600283612c64565b9150612661826133ec565b600282019050919050565b6000612679602083612c53565b915061268482613415565b602082019050919050565b600061269c602c83612c53565b91506126a78261343e565b604082019050919050565b60006126bf602983612c53565b91506126ca8261348d565b604082019050919050565b60006126e2602183612c53565b91506126ed826134dc565b604082019050919050565b6000612705601d83612c64565b91506127108261352b565b601d82019050919050565b6000612728603183612c53565b915061273382613554565b604082019050919050565b600061274b600583612c64565b9150612756826135a3565b600582019050919050565b600061276e600583612c64565b9150612779826135cc565b600582019050919050565b6000612791601483612c64565b915061279c826135f5565b601482019050919050565b6127b081612dee565b82525050565b60006127c2828a612495565b91506127ce8289612495565b91506127da8288612495565b91506127e68287612495565b91506127f28286612495565b91506127fe8285612495565b915061280a8284612495565b915081905098975050505050505050565b600061282682612577565b9150612831826125bd565b915061283d8284612495565b915081905092915050565b6000612853826126f8565b915061285f8284612495565b915081905092915050565b60006128758261273e565b9150612880826125bd565b915061288c8284612495565b915081905092915050565b60006128a282612761565b91506128ad826125bd565b91506128b98284612495565b915081905092915050565b60006128cf82612784565b91506128db8285612495565b91506128e68261250c565b91506128f28284612495565b91506128fd82612649565b91508190509392505050565b600060208201905061291e6000830184612405565b92915050565b60006080820190506129396000830187612405565b6129466020830186612405565b61295360408301856127a7565b81810360608301526129658184612423565b905095945050505050565b60006020820190506129856000830184612414565b92915050565b600060208201905081810360008301526129a5818461245c565b905092915050565b600060208201905081810360008301526129c6816124c6565b9050919050565b600060208201905081810360008301526129e6816124e9565b9050919050565b60006020820190508181036000830152612a0681612531565b9050919050565b60006020820190508181036000830152612a2681612554565b9050919050565b60006020820190508181036000830152612a468161259a565b9050919050565b60006020820190508181036000830152612a66816125e0565b9050919050565b60006020820190508181036000830152612a8681612603565b9050919050565b60006020820190508181036000830152612aa681612626565b9050919050565b60006020820190508181036000830152612ac68161266c565b9050919050565b60006020820190508181036000830152612ae68161268f565b9050919050565b60006020820190508181036000830152612b06816126b2565b9050919050565b60006020820190508181036000830152612b26816126d5565b9050919050565b60006020820190508181036000830152612b468161271b565b9050919050565b6000602082019050612b6260008301846127a7565b92915050565b6000604082019050612b7d60008301856127a7565b612b8a60208301846127a7565b9392505050565b6000608082019050612ba660008301876127a7565b612bb360208301866127a7565b612bc060408301856127a7565b612bcd60608301846127a7565b95945050505050565b6000612be0612bf1565b9050612bec8282612e3a565b919050565b6000604051905090565b600067ffffffffffffffff821115612c1657612c15612f72565b5b612c1f82612fb5565b9050602081019050919050565b600081519050919050565b600081519050919050565b600082825260208201905092915050565b600082825260208201905092915050565b600081905092915050565b6000612c7a82612dee565b9150612c8583612dee565b9250827fffffffffffffffffffffffffffffffffffffffffffffffffffffffffffffffff03821115612cba57612cb9612ee5565b5b828201905092915050565b6000612cd082612dee565b9150612cdb83612dee565b925082612ceb57612cea612f14565b5b828204905092915050565b6000612d0182612dee565b9150612d0c83612dee565b9250817fffffffffffffffffffffffffffffffffffffffffffffffffffffffffffffffff0483118215151615612d4557612d44612ee5565b5b828202905092915050565b6000612d5b82612dee565b9150612d6683612dee565b925082821015612d7957612d78612ee5565b5b828203905092915050565b6000612d8f82612dce565b9050919050565b60008115159050919050565b60007fffffffff0000000000000000000000000000000000000000000000000000000082169050919050565b600073ffffffffffffffffffffffffffffffffffffffff82169050919050565b6000819050919050565b82818337600083830152505050565b60005b83811015612e25578082015181840152602081019050612e0a565b83811115612e34576000848401525b50505050565b612e4382612fb5565b810181811067ffffffffffffffff82111715612e6257612e61612f72565b5b80604052505050565b6000612e7682612dee565b91507fffffffffffffffffffffffffffffffffffffffffffffffffffffffffffffffff821415612ea957612ea8612ee5565b5b600182019050919050565b6000612ebf82612dee565b9150612eca83612dee565b925082612eda57612ed9612f14565b5b828206905092915050565b7f4e487b7100000000000000000000000000000000000000000000000000000000600052601160045260246000fd5b7f4e487b7100000000000000000000000000000000000000000000000000000000600052601260045260246000fd5b7f4e487b7100000000000000000000000000000000000000000000000000000000600052603260045260246000fd5b7f4e487b7100000000000000000000000000000000000000000000000000000000600052604160045260246000fd5b600080fd5b600080fd5b600080fd5b600080fd5b6000601f19601f8301169050919050565b7f4552433732313a207472616e7366657220746f206e6f6e20455243373231526560008201527f63656976657220696d706c656d656e7465720000000000000000000000000000602082015250565b7f4552433732313a20746f6b656e20616c7265616479206d696e74656400000000600082015250565b7f222c20226465736372697074696f6e223a20225261726974792069732061636860008201527f69657665642076696120616e206163746976652065636f6e6f6d792c2073756d60208201527f6d6f6e657273206d757374206c6576656c2c206761696e2066656174732c206c60408201527f6561726e207370656c6c732c20746f2062652061626c6520746f20637261667460608201527f20676561722e205468697320616c6c6f777320666f72206d61726b657420647260808201527f6976656e20726172697479207768696c6520616c6c6f77696e6720616e20657660a08201527f65722067726f77696e672065636f6e6f6d792e2046656174732c207370656c6c60c08201527f732c20616e642073756d6d6f6e65722067656172206973206f6d6d697474656460e08201527f2061732070617274206f66206675727468657220657870616e73696f6e732e226101008201527f2c2022696d616765223a2022646174613a696d6167652f7376672b786d6c3b626101208201527f61736536342c000000000000000000000000000000000000000000000000000061014082015250565b7f4552433732313a207472616e7366657220746f20746865207a65726f2061646460008201527f7265737300000000000000000000000000000000000000000000000000000000602082015250565b7f4552433732313a20617070726f766520746f2063616c6c657200000000000000600082015250565b7f7870000000000000000000000000000000000000000000000000000000000000600082015250565b7f4552433732313a206f70657261746f7220717565727920666f72206e6f6e657860008201527f697374656e7420746f6b656e0000000000000000000000000000000000000000602082015250565b7f2000000000000000000000000000000000000000000000000000000000000000600082015250565b7f4552433732313a20617070726f76652063616c6c6572206973206e6f74206f7760008201527f6e6572206e6f7220617070726f76656420666f7220616c6c0000000000000000602082015250565b7f4552433732313a2062616c616e636520717565727920666f7220746865207a6560008201527f726f206164647265737300000000000000000000000000000000000000000000602082015250565b7f4552433732313a206f776e657220717565727920666f72206e6f6e657869737460008201527f656e7420746f6b656e0000000000000000000000000000000000000000000000602082015250565b7f227d000000000000000000000000000000000000000000000000000000000000600082015250565b7f4552433732313a206d696e7420746f20746865207a65726f2061646472657373600082015250565b7f4552433732313a20617070726f76656420717565727920666f72206e6f6e657860008201527f697374656e7420746f6b656e0000000000000000000000000000000000000000602082015250565b7f4552433732313a207472616e73666572206f6620746f6b656e2074686174206960008201527f73206e6f74206f776e0000000000000000000000000000000000000000000000602082015250565b7f4552433732313a20617070726f76616c20746f2063757272656e74206f776e6560008201527f7200000000000000000000000000000000000000000000000000000000000000602082015250565b7f646174613a6170706c69636174696f6e2f6a736f6e3b6261736536342c000000600082015250565b7f4552433732313a207472616e736665722063616c6c6572206973206e6f74206f60008201527f776e6572206e6f7220617070726f766564000000000000000000000000000000602082015250565b7f6c6576656c000000000000000000000000000000000000000000000000000000600082015250565b7f636c617373000000000000000000000000000000000000000000000000000000600082015250565b7f7b226e616d65223a202273756d6d6f6e65722023000000000000000000000000600082015250565b61362781612d84565b811461363257600080fd5b50565b61363e81612d96565b811461364957600080fd5b50565b61365581612da2565b811461366057600080fd5b50565b61366c81612dee565b811461367757600080fd5b5056fe3c2f746578743e3c7465787420783d2231302220793d2236302220636c6173733d2262617365223e3c73766720786d6c6e733d22687474703a2f2f7777772e77332e6f72672f323030302f73766722207072657365727665417370656374526174696f3d22784d696e594d696e206d656574222076696577426f783d223020302033353020333530223e3c7374796c653e2e62617365207b2066696c6c3a2077686974653b20666f6e742d66616d696c793a2073657269663b20666f6e742d73697a653a20313470783b207d3c2f7374796c653e3c726563742077696474683d223130302522206865696768743d2231303025222066696c6c3d22626c61636b22202f3e3c7465787420783d2231302220793d2232302220636c6173733d2262617365223e4142434445464748494a4b4c4d4e4f505152535455565758595a6162636465666768696a6b6c6d6e6f707172737475767778797a303132333435363738392b2f3c2f746578743e3c7465787420783d2231302220793d2234302220636c6173733d2262617365223ea2646970667358221220fb14f6739d97dcba39d3d8bee94d76cb8c4855f744bf2865ae803f8937f96d3864736f6c63430008070033",
  "linkReferences": {},
  "deployedLinkReferences": {}
}